:020000040800F2
:1000000008080020D50100085D320008652A0008B4
:1000100059320008590C000889330008000000001C
:100020000000000000000000000000006532000831
:10003000750C0008000000006132000869320008F9
:10004000EF010008EF010008EF010008EF010008D0
:10005000EF010008EF010008EF010008EF010008C0
:10006000EF010008910C0008990C00085D0C0008D5
:10007000EF010008EF010008EF010008EF010008A0
:10008000EF010008690C0008EF010008EF0100080B
:10009000EF010008EF010008EF010008A10C0008C3
:1000A000EF010008EF010008EF010008EF01000870
:1000B000EF010008EF010008EF010008EF01000860
:1000C000EF010008EF010008EF010008EF01000850
:1000D000EF010008EF0100087D330008EF01000880
:1000E000790C0008EF010008EF01000800F002F8A9
:1000F00000F060F814A696E8000CB244B344DA4568
:1001000001D100F057F8BAE80F000FA696E83000CA
:10011000A5EB040504EB0607AAEB0704A7F101070A
:100120004FEA15154FEA3414A4F10104AC4201D38F
:1001300000F040F813F0010F18BFFB1A43F0010361
:1001400000F001F8DBE718470444000024440000F5
:10015000103A24BF78C878C1FAD8520724BF30C8F3
:1001600030C144BF04680C60704700007047000055
:100170000023002400250026103A28BF78C1FBD8B0
:10018000520728BF30C148BF0B607047662904F092
:100190005D81782900F07A80002070471FB500F05B
:1001A000E5FB04000020002103F062FFE0601FBDBA
:1001B00010B510BD00F0DAFC1146FFF7EFFF03F0B9
:1001C000E5F800F0F8FC03B4FFF7F2FF03BC00F021
:1001D0003BFD00000948804709480047FEE7FEE76D
:1001E000FEE7FEE7FEE7FEE7FEE7FEE7FEE7FEE7E7
:1001F00004480549054A064B704700006D32000867
:10020000ED00000808020020080800200804002073
:10021000080400200FB41CB5074B06AA7B446946AE
:100220000090059800F089FB0020694600F098FBDB
:100230001CBC5DF814FB00004107000070B50446CB
:1002400085690068C10601D5302600E02026C00778
:1002500007D070BDD4E9012130469047206A401C88
:1002600020626D1EF6D570BD70B5044685690078B4
:10027000C00707D170BDD4E9012120209047206A32
:10028000401C20626D1EF6D570BD000070B504469E
:100290000D4621461068AFF300802188090502D57C
:1002A0000F4A7A4402E00E4A7A440E32002104F1E9
:1002B000240305E000F00F060009965D5E54491C1A
:1002C0000028F7D120780023000704D5702D02D034
:1002D00009B1022311322046BDE8704000F0C0B8D9
:1002E000AA4100002DE9F05F894604464FF0000A5C
:1002F000DFF824B1FB44C0F820A02046E16888471D
:1003000000287DD0252806D0D4E901219047206A15
:10031000401C2062F1E700255F462046E1688847DF
:100320002028064607DB312E05D2B81910F8200C1C
:1003300008B10543F1E7A80701D525F00405C4F885
:100340001CA00027C4F818A02A2E09D0304603F0BC
:1003500087FE38B304EB8708303EC8F8186019E010
:1003600059F8041B204604EB87029161E168884735
:10037000012F064618D1E069002820DA25F0200573
:100380001DE0D8F8180000EB800006EB4000303884
:10039000C8F818002046E1688847064603F060FE6A
:1003A0000028EED1012F0AD02E2E08D12046E16878
:1003B00088477F1C0646022F45F02005C4DBA06954
:1003C000002803DA404245F00105A061E80701D0AA
:1003D00025F01005A6B1A6F14100192802D8203653
:1003E00045F400654A463146204625604D46FFF7F4
:1003F000CDFE60B1012807D0ED1D25F0070000E01B
:1004000007E000F1080978E705F1040975E73046CF
:100410007AE7206ABDE8F09F8041000010B5431CD8
:1004200002E010F8011B71B18107FAD14FF00132DF
:1004300002C88C1A8C4314EAC211F9D0C01A0A06F9
:1004400003D0C01E10BDC01A10BD0A0401D0801E0A
:1004500010BD0902FCD0401E10BD704770477047A8
:100460002DE9F0470D4699469246044600F12408CE
:100470000168880604D5E06921F01001216000E0E0
:100480000120A84201DD471B00E00027A1697A197D
:1004900002EB0900081AA0612078C00602D42046A9
:1004A000FFF7CCFE002608E0D4E901211AF8060087
:1004B0009047206A401C761C20624E45F4DB207871
:1004C000C0060AD52046FFF7B9FE06E0D4E90121AF
:1004D00030209047206A401C2062381EA7F1010797
:1004E000F4DC07E0D4E9012118F805009047206A00
:1004F000401C2062281EA5F10105F3DC2046FFF711
:10050000B3FE2078000602D50220BDE8F087012066
:10051000FBE72DE9FF4F0C461E464FF0FF378BB02F
:10052000D2E90001DDF860800A908A46C1F30A55DD
:1005300005B93D46002108464FF00000BAF1000F12
:1005400000F4400005DA00EB80004FF4400101EABE
:1005500050004FEA9059B9F1010F00DDB9460A98F1
:1005600050EA4A000ED044F61050A5F2FF3545433C
:100570002F14B8F1000F1ED07542291E1EDDC9F1DF
:1005800000021CE0B8F1010F4FF0000001D0302153
:1005900003E0F24305E02154401CB042FBDB30464F
:1005A0000022002121540B99C1F80880C1E90020E4
:1005B0000FB0BDE8F08FBD1B6D1CDEE74A4600DAC8
:1005C000694206A800F05CFA06AB93E8070003ABAB
:1005D00083E8070050460A9903F066F98DE80700A2
:1005E000A0F500501F3800900398002D0ADD42F25C
:1005F0001F014A460844002303A90390684603F0FC
:10060000CFFB09E0A0F500504A461F38002303A99C
:100610000390684603F0D9FB8DE807000004000C46
:1006200003D04FF0FF30410800E01046B8F1000F52
:1006300003D00022009215461EE0751E05D400F07E
:1006400099F9303262556D1EF9D5B346012208433F
:1006500002D000227F1C04E02078302801D1002243
:100660007F1E002A099784D01DE0112D07DA00F0C3
:1006700081F9303262556D1C50EA0102F5D1084310
:1006800002D00098C8B10EE00021681E05E0235C8E
:10069000625C63542254401E491C8142F7DBAB4626
:1006A000A81B401E0990002004F80B000B98099A23
:1006B000C0F80880C0E9002B7AE711264FF0000847
:1006C00057E72DE9F04F88460446D21D22F0070176
:1006D00091B0D1E90001CDE90A0103F0ADFC024679
:1006E0000B98C00F01D02D2007E02068810701D5AD
:1006F0002B2002E0202101EAC000032A099001D04A
:10070000072A05DB03464146204600F079F90BE154
:100710002078800601D5E06900E00620B8F1650F79
:10072000814606D0B8F1660F18D0B8F1670F70D1C6
:1007300031E00020B9F1110F009001DB112301E03D
:1007400009F101030AAA01A90CA8FFF7E2FEDDE9FD
:100750000C70002609F10105834647E001204B4655
:1007600000904FF000470AAA01A90CA8FFF7D1FE9C
:10077000DDE90DB00C995D46002610B909F10100C4
:100780000D18B9EB050003D4C0F1FF3609F10105DE
:10079000A5EB09002BE0B9F1010F01DA4FF00109D7
:1007A0000020B9F1110F0090484601DD112300E04F
:1007B00003460AAA01A90CA8FFF7ABFEDDE90C70FD
:1007C0004D4600268346207800070AD4AB4500DA60
:1007D0005D4601A8012D04DD411911F8011C3029E5
:1007E00007D04F4502DA17F1040F04DA01208246E0
:1007F0000FE06D1EEEE7002F02DCED1B3E4403E030
:10080000781CA84200DD7D1CB81B00F1010A4FF0E6
:1008100000472078000703D4AA4501DB4FF0FF3AD8
:100820000021B7F1004F0DF143088DF8431024D09B
:1008300002202B23002F01DA7F422D230A21021EE2
:10084000A0F1010000DC5FB197FBF1FC97FBF1F236
:1008500001FB1C7C17460CF1300C08F801CDEEE7CB
:10086000A8F1010003702188090501D5452100E0A8
:100870006521A0F1010800F8011C09980FA9A1EB5E
:100880000807FF1D00B10120411901EBEA70A169C1
:100890003844081A401EA0612078C00602D42046C1
:1008A000FFF7CCFC099828B1D4E901219047206AD0
:1008B000401C20622078C00622D52046FFF7BEFCEF
:1008C0001EE0002E04DBB34502DD01A8805D00E0E0
:1008D0003020D4E901219047206A401C2062761C18
:1008E000AAF101005FEA000A0AD100F03FF8C068EF
:1008F0000168405CD4E901219047206A401C2062D5
:10090000281EA5F10105DCDC07E0D4E9012118F877
:10091000010B9047206A401C2062381EA7F1010796
:10092000F3DC2046FFF7A0FC032011B041E60000F5
:1009300001694A1C02610878704700B58FB0CDE9A3
:1009400001310021059105497944CDE90310114693
:100950006846FFF7C7FC0FB000BD0000E5FFFFFFD2
:100960000A6802F8010B0A607047000000487047EF
:100970003000002030B5B0F10A0271F100034FEAF7
:10098000900E4EEA817EB0EB0E0061EB91014FEAD2
:10099000101E4EEA017E10EB0E0041EB11114FEAE2
:1009A000102E4EEA016E10EB0E0041EB11214FEAC2
:1009B000104E4EEA014E10EB0E0041EB1141401873
:1009C00041F100014FEAD00040EA41704FEAD10105
:1009D0004FEA810444EA907410EB800544EB010473
:1009E0006D1944EB0404521BA3414FF0000348BFB0
:1009F0000A3200D530BD401C41F1000130BD00007D
:100A00002DE9F0411F46044603260168072A01F438
:100A1000006004DB08B116A505E016A503E008B1E7
:100A200015A500E015A521F010002060A069C01EEA
:100A3000A0610FB1401EA0612046FFF7FFFB4FB140
:100A4000D4E9012138469047206A401C2062C01C2E
:100A5000206206E0206AFAE7D4E9012115F8010BCB
:100A60009047761EF8D22046FFF7FEFBBDE8F081E6
:100A70004E414E006E616E00494E4600696E660042
:100A80002DE9F047814616468AB0354878440DC8AE
:100A90008DE80D0032487844801C03AC0DC884E812
:100AA0000D0041F69B300844372190FBF1F290FB9A
:100AB000F1F5A5F1800501FB12041B3C02D564424F
:100AC000012000E00020DFF898A080460027FA44CB
:100AD000AAF1BE0A0EE0E0070AD03246684607EBEC
:100AE000470101230AEB810103F06FF98DE807004C
:100AF00064107F1C002CEED1194F7F44AE3F19E0EB
:100B0000E80715D007EB04100DF1180A90E80E0065
:100B10008AE80E00C068F04201D198190890324668
:100B2000012306A903A803F050F903AB83E80700EB
:100B30006D10641C002DE3D14FF00103324669466D
:100B4000B8F1000F03A802D003F02AF901E003F086
:100B50003CF9C9E90001C9F808200AB0BDE8F087EE
:100B6000783A000000487047100000207546FFF7F3
:100B7000F9FFAE4605006946534620F0070085465A
:100B800018B020B5FFF734FBBDE820404FF0000659
:100B90004FF000074FF000084FF0000BAC46ACE8F8
:100BA000C009ACE8C009ACE8C009ACE8C00921F054
:100BB00007018D46704710B50446AFF3008020460C
:100BC000BDE81040FFF7FFBA4FF0013C50F8042B8E
:100BD00051F8043B9A4221D1A2EB0C03934313EA50
:100BE000CC1317D150F8042B51F8043B9A4215D17D
:100BF000A2EB0C03934313EACC130BD150F8042B54
:100C000051F8043B9A4209D1A2EB0C03934313EA37
:100C1000CC13DBD04FF00000704700BFD01A01BAF0
:100C2000B1FA81F101F0180122FA01F0CB40DBB2F8
:100C3000C0B2C01AC1F120012CFA01F3D11A9143BC
:100C400011EAC311E6D1704701491820ABBEFEE797
:100C50002600020070470000FEE7000040F2D400CA
:100C6000C2F2000000F0B0B840F21810C2F200006A
:100C700000F0AAB87047000080B54FF4806000F023
:100C8000B7F94FF40050BDE8804000F0B1B9000062
:100C9000082000F0ADB90000102000F0A9B9000054
:100CA00080B5202000F0A4F94FF4807000F0A0F986
:100CB0004FF40070BDE8804000F09AB9EFF3108067
:100CC00072B600BFFEE70000014690F8210002283E
:100CD00016D10868D1E90FC3026822F00E02026043
:100CE000026822F001020260012000FA03F2CCF84F
:100CF000042081F821000020002281F82020704784
:100D0000042088630120002281F820207047000021
:100D100090F82110022923D1026840F2040C1168D6
:100D2000C4F2020C21F00E01116013682F21C4F2ED
:100D300002018A4223F00103136015DD3023C4F25F
:100D400002039A421CD04423C4F202039A421BD0ED
:100D50005823C4F202039A421CD14FF4803321E09D
:100D600004218163012070470823C4F202039A42E0
:100D70000ED01C23C4F202039A420BD1102311E0BF
:100D80004FF480730EE000BF4FF480530AE000BFC1
:100D9000012307E00CF168014FF080738A4208BF1D
:100DA0004FF480130121CCF8003080F82110416B02
:100DB0000022002980F8202004BF0020704780B561
:100DC0008847002080BD000010B5D0E90FCE016833
:100DD000DCF800300A6823FA0EF35C072AD512F01B
:100DE000040427D00A68920603D40A6822F0040299
:100DF0000A602F22C4F20202914240F20402C4F2BD
:100E000002025BDD3023C4F20203994272D0442314
:100E1000C4F20203994273D05823C4F202039942E8
:100E200040F07A804FF480231360C16A002940F0BB
:100E300098806FE09C0727D512F0020424D00A683E
:100E4000920606D40A6822F00A020A60012280F89B
:100E500021202F22C4F20202914240F20402C4F285
:100E600002023BDD3023C4F20203994260D04423E6
:100E7000C4F2020399425FD05823C4F2020399429C
:100E800060D14FF4003365E01B0743D512F0080230
:100E900008BF10BD0A6822F00E020A60012101FAA3
:100EA0000EF2CCF80420816380F82110016B00223F
:100EB000002980F8202054D12CE000BF0823C4F280
:100EC0000203994222D01C23C4F20203994223D187
:100ED00040231360C16A002943D11BE00823C4F2F8
:100EE000020399422CD01C23C4F20203994229D157
:100EF00020232FE04FF480631360C16A89BB09E0AF
:100F00004FF480431360C16A59BB03E004231360AC
:100F1000C16A31BB10BD00BF02F168044FF08063AD
:100F2000A14208BF4FF480031360C16AC9B9F1E759
:100F30004FF400730EE000BF4FF400530AE000BF0F
:100F4000022307E002F168044FF00073A14208BFDA
:100F50004FF400131360816A0022002980F82020DA
:100F6000D8D0BDE810400847014600284FF00100E6
:100F700008BF70472DE9F043D1F800C04FF6F87371
:100F8000CBF6FD734CF6CD426344CCF6CC42A3FBCA
:100F900002236FF0030202EA93020023C4F2020369
:100FA00001F10C08C1E90F320222D1E9019E98E853
:100FB000F00181F82120DCF8002043F6F0739A4319
:100FC00042EA090242EA0E0222432A4332433A43EA
:100FD00042EA0802CCF8002000228A6381F821004E
:100FE00081F820200020BDE8F043704770470000E2
:100FF00040F21441C4F201010A68024214BF0860C1
:101000007047FFF7F3BF00002DE9F04F82B00E6884
:10101000002E00F0FD8041F20042C4F201020423E0
:1010200040F2004E904208BF03234FF6FF7CC4F20B
:10103000010E009300240123C1F2100C4FF0000AAE
:101040004FF000094BE000BF41F20002C4F2010280
:10105000009F904208BF022704F00C030F229A4021
:101060002BEA020207FA03F34FEA9A051A4346F8FD
:1010700025204E6840F20C45F202DEF8082054BFED
:1010800022EA080242EA0802C4F20105CEF808206A
:101090002A68B30254BF22EA080242EA08022A6020
:1010A000B303DEF8042054BF22EA080242EA080231
:1010B000F303CEF80420DEF800204FF0010354BF04
:1010C00022EA080242EA0802CEF800200E680AF17D
:1010D000010A36FA0AF204F1040400F0998003FAD6
:1010E0000AFB16EA0B08F1D04E68664512DC122E98
:1010F00056D8DFE806F0350B4D4955555555555531
:101100005555555555555545510000BFD1F80C90D2
:1011100046E000BF4FF6FF72C1F2210296420FDC9B
:101120000022C1F2110296421AD00022C1F212022C
:10113000964215D00022C1F22102964210D02FE033
:101140000022C1F2220296420AD00022C1F23102EC
:10115000964205D00022C1F23202964220D100BF51
:101160008A684AB1012A14BFC0F814B0C0F810B0A0
:101170004FF0080914E000BF4FF0040910E000BF71
:10118000CA6802F104090BE04FF0000908E000BF53
:10119000CA6802F1080903E0CA6802F10C0900BF3D
:1011A00002462646B8F5807F24BF0432203E1768E9
:1011B0000F25B54027EA050509FA06F635431560FF
:1011C000CA79D2067FF582AF41F21803C4F2020356
:1011D0001A68AEF57E7642F001021A601A6802F0D3
:1011E00001020192019A2AF0030256F802B040F679
:1011F0000002C4F20102904208D040F60042C4F25C
:10120000010290427FF420AF012725E7002723E762
:1012100002B0BDE8F08F000040F20420C2F20000EE
:1012200000687047002804BF01207047F0B581B006
:10123000044690F83D0028B9002084F83C00204680
:1012400000F0F6FA242084F83D002068016821F0BF
:1012500001010160016841F400410160016821F46D
:101260000041016000F062FD636848F2A16CC0F2C9
:10127000010C40F60011C0F23D0163453CBF48F24D
:101280008041C0F21E01884202D2012001B0F0BDAF
:101290004DF68361C4F21B31A0FB01122168970C4B
:1012A000D1F804E04FF496762EF03F0545EA9245DA
:1012B0004D60774348F638160D6AC0F24106A7FB29
:1012C000067625F03F07634538BF960C721C3A43FB
:1012D0000A62CA6948F2A0664CF6FF77C0F20106BE
:1012E000B34222EA07020BD801385B00B0FBF3F0EF
:1012F00001306FF31F30042898BF04201BE000BFAB
:10130000A768013857B119277B43B0FBF3F00130D0
:101310006FF31F3070B100F5804007E003EB43032B
:10132000B0FBF3F001306FF31F3018B100F500404F
:1013300001E000BF01201043C8610868D4E9072319
:1013400020F0C000104318430860886848F2FF325C
:1013500004F10C0790438CCF18431043A6698860B2
:10136000C86820F0FF0038433043C860086840F088
:101370000100086000202021206484F83D102063D3
:1013800084F83E0001B0F0BD2DE9F04F85B0044671
:101390000020994616460F460490FFF73DFF94F84B
:1013A0003D10202927D10546206800BF81698907A3
:1013B0001CD5FFF731FF411B20681A29F6D381693C
:1013C0008907F3D500202021206384F83D1084F89C
:1013D0003E00206C04F13C0A40F020002064022012
:1013E00000218AF8001005B0BDE8F08FA2461AF877
:1013F0003C1F012904D1022005B0BDE8F08F00BFD9
:1014000001228AF800200368DDE90F180E9ADB0735
:1014100003D1036843F001030360036823F400630E
:101420000360222084F83D00402084F83E00002024
:10143000206462626185608D394620850020CFF688
:10144000FF70E062204632464B46CDE9008501F050
:101450000BFB18B1012005B0BDE8F08F208D0228EC
:1014600026D001280ED0002838D100200390206813
:1014700041690391816903910399016841F4007105
:10148000016037E02068016821F480610160EFF3BA
:10149000108072B600200390206841690391816931
:1014A00003910399016841F40071016062B621E083
:1014B0002068016841F400610160EFF3108072B6AA
:1014C0000020039020684169039181690391039989
:1014D000016821F48061016062B60BE02068016858
:1014E00041F48061016000210391416903918069A9
:1014F00003900398208D002800F0CC80042740F250
:1015000008094BF2895BC0F20107C2F20009C1F27F
:10151000F84B23260EE000BF10690870606A218D29
:1015200001306062481E2085618D013961850104AA
:1015300000F0B08080B203280CD802282CD00128FB
:101540004AD1204641462A4601F02CFD002800F0F1
:101550009C807FE7204641462A4601F023FD002873
:101560007FF478AF2068616A00690870606A226859
:10157000411C208D616201382085638D013B6385AC
:1015800053695B07D3D580B20328C5D1106820F416
:1015900080601060C0E700BF204639460022434605
:1015A000009501F0ADFB00287FF454AFEFF31080FD
:1015B00072B62068616A026842F4007202600069D3
:1015C0000870606A218D01306062481E2085608D40
:1015D0000138608562B658E020463946002243460D
:1015E000009501F08DFB00287FF434AF206801687E
:1015F00021F480610160EFF3108072B62068616AA7
:1016000000690870606A218D0130013960622185AE
:10161000618D01396185D9F80010C908A1FB0B1251
:10162000110A714304910499013904910499002924
:101630003CD021684A69520717D4049A013A0492AF
:10164000049A9AB34A6952070FD4049A013A049251
:10165000049A5AB34A69520707D4049A013A049289
:10166000049A1AB34A695207DDD50A6842F4007237
:101670000A6009690170606A218D01306062481E4C
:101680002085608D0138608562B62068616A0069D6
:1016900043E700BF202084F83D00002084F83E008E
:1016A00000218AF8001005B0BDE8F08F002020214D
:1016B000206384F83D1084F83E00206C40F0200048
:1016C000206462B6012000218AF8001005B0BDE850
:1016D000F08F00002DE9F04383B0994616460F467F
:1016E0000446FFF799FD94F83D10202924D10546C2
:1016F000206800BF816989071AD5FFF78DFD411B5E
:1017000020681A29F6D381698907F3D500202021A2
:10171000206384F83D1084F83E00216C41F02001E4
:10172000216484F83C00022003B0BDE8F08300BFD0
:1017300094F83C10012903D1022003B0BDE8F083E6
:10174000012284F83C200368DDE90B180A9ADB07C4
:1017500003D1036843F001030360036823F40063CB
:101760000360212084F83D00402084F83E000020E2
:10177000206462626185608D394620850020CFF645
:10178000FF70E062204632464B46CDE9008501F00D
:10179000F5F918B1012003B0BDE8F083208D98B9A8
:1017A000204641462A4601F04DFA88B3206C0428B1
:1017B000F0D12068016841F400710160012003B09C
:1017C000BDE8F0830004EBD0204641462A4601F0F4
:1017D00031FC0028EAD1616A2268084610F8013B12
:1017E0001361238D6062581E2085678D013F6785D8
:1017F00057697F07E6D50704E4D048781061881C54
:101800006062981E2085618D01396185DAE700BF2D
:101810002068016841F400710160202084F83D00D7
:10182000002084F83E0084F83C0003B0BDE8F0835B
:1018300010B586B0006845F60001C4F20001884288
:101840004FF00001CDE90411CDE9021132D045F28B
:101850000041C4F20001884250D141F21804C4F2A0
:101860000204206802A940F008002060206800F00F
:101870000800019001984FF44070029012200390EC
:101880000320059040F60040C4F20100FFF7BCFBC6
:101890000420C4F20100016841F0E06141F002015E
:1018A0000160606840F400106060606800F400103F
:1018B00022E000BF41F21804C4F20204206802A929
:1018C00040F008002060206800F0080001900198B6
:1018D0004FF440600290122003900320059040F6E0
:1018E0000040C4F20100FFF78FFB606840F4800005
:1018F0006060606800F480000190019806B010BD3F
:1019000040F2000040F20421C2F20000C2F20001E5
:1019100000780A68104408607047000080B542F201
:101920000000C4F20200016841F0100101600320D0
:1019300000F08CF8002000F005F800F027F80020F7
:1019400080BD000070B540F20006C2F2000640F211
:1019500008013278C2F200014FF47A730968B3FBD0
:10196000F2F20446B1FBF2F1084600F007FC0F2C3E
:101970004FF0010508D838B94FF0FF30214600225A
:10198000002500F037F87460284670BD82B041F23F
:101990001800C4F202000168022241F00101016056
:1019A000016801F0010101910199416841F0805104
:1019B0004160406800F08050009000980420C4F21C
:1019C0000100016862F31A61016002B07047000013
:1019D000002848BF704700F01F01012202FA01F100
:1019E0001C2202EAD0004EF20012CEF20002815018
:1019F0007047000010B54EF60C5CCEF2000CDCF81F
:101A00000030C3F3022E8EF00704042C28BF0424F8
:101A1000BEF103034FF0FF3E0EFA04F438BF00237B
:101A2000A14399400EFA03F39A43114300F00F02C9
:101A300000F160430901043A03F56443624400285D
:101A400048BF02F10C03197010BD00004EF60C5196
:101A5000CEF200010A684FF6FF031A4060F30A2233
:101A600042F0806040F0FD70086070472DE9F04161
:101A700082B00446007841F21C06C007C4F2020698
:101A80004AD030685FEAC00808D4306840F080501F
:101A90003060306800F080500190019847F20007F4
:101AA000C4F200073868C00512D4386840F480706A
:101AB0003860FFF7B1FB05463868C00508D4FFF76A
:101AC000ABFB401B6428F7D9032002B0BDE8F081CE
:101AD000706810F4407012D0616801F4407188425F
:101AE0000DD0706840F24042C4F24222012320F43B
:101AF000407113600023C0071360716026D17068C5
:101B0000616820F440700843B8F1000F706003D49E
:101B1000306820F0805030602068810707D556F883
:101B2000181CA26821F44041114346F8181CC00655
:101B300007D556F8180CE16820F48000084346F8F1
:101B4000180C002002B0BDE8F08100BFFFF764FB75
:101B5000054641F2883700BF70688007CFD4FFF791
:101B60005BFB401BB8424FF00300F5D9EAE70000E9
:101B7000002804BF012070472DE9F04381B042F2F4
:101B80000008C4F202080446D8F800000D4600F030
:101B9000070081420CD9D8F8000020F00700284344
:101BA000C8F80000D8F8000000F00700A8426CD187
:101BB000206841F204098107C4F2020917D54107E0
:101BC00005D5D9F8001041F4E061C9F8001001070B
:101BD00005D5D9F8001041F46051C9F80010D9F8C2
:101BE0000010A26821F0F0011143C9F80010C007ED
:101BF00042D1D8F8000000F0070085420CD2D8F896
:101C0000000020F007002843C8F80000D8F80000C2
:101C100000F00700A84238D12068410707D5D9F85D
:101C20000010E26821F4E0611143C9F800100007D8
:101C300008D5D9F80000216920F4605040EAC100BD
:101C4000C9F80000D9F8002002F00C00082841F281
:101C50000020C0F27A004DD144F23A53C2F38341DE
:101C6000C0F60003595CD20338D440F60010C0F22D
:101C70003D0048433EE000BF606859F8041C02285C
:101C800008D0012826D1890306D4012001B0BDE87F
:101C9000F08300BF8901F8D5D9F8001021F00301C5
:101CA0000843C9F80000FFF7B7FA064641F2883743
:101CB000D9F80000616800F00C00B0EB810F98D0FB
:101CC000FFF7AAFA801BB842F2D9032001B0BDE8A1
:101CD000F08300BF8907D8D5DEE700BFD9F8002020
:101CE00044F23853C2F34042C0F600039A5C4843C2
:101CF000B0FBF2F0D9F8001044F22052C1F3031106
:101D0000C0F60002515C40F2080220FA01F140F2F4
:101D10000400C2F200000068C2F200021160FFF786
:101D200011FE002001B0BDE8F083000040F2080081
:101D300041F20401C2F20000C4F202010068096825
:101D400044F23052C1F30221C0F60002515CC84097
:101D50007047000040F2080041F20401C2F20000A6
:101D6000C4F202010068096844F23052C1F3C22192
:101D7000C0F60002515CC84070470000002804BF54
:101D8000012070472DE9F04182B00446007841F20D
:101D90000006C007C4F202060CD0706800F00C0008
:101DA000042840F081803068800303D560680028F3
:101DB00000F04681207880071BD5706810F00C0F6A
:101DC00009D0706800F00C00082840F08780706827
:101DD000C00300F183803068800703D520690128A3
:101DE00040F02E813068616920F0F80040EAC100BF
:101DF00030602078000713D4207840072CD4E569A0
:101E0000002D00F01881706800F00C00082840F0E8
:101E1000A780012D40F00481012002B0BDE8F081CF
:101E2000A069002800F084800020C4F24220012133
:101E3000C0F88014FFF7F0F9054600BF706A80070C
:101E400000F1B280FFF7E8F9401B0228F6D9032021
:101E500002B0BDE8F08100BFF0695FEAC00808D4B5
:101E6000F06940F08050F061F06900F0805000901F
:101E7000009847F20007C4F200073868C00549D44B
:101E8000386840F480703860FFF7C6F9054600BF37
:101E90003868C0053ED4FFF7BFF9401B6428F7D966
:101EA000032002B0BDE8F081706800F00C00082843
:101EB00003D17068C0033FF576AF616830680029D0
:101EC00000F00C81B1F5A02F00F00081B1F5803F4A
:101ED00040F01A8140F480301CE100BF20690028E6
:101EE00040F20000C4F2422000F08880012101602D
:101EF000FFF792F9054600BF306880073FF572AFE3
:101F0000FFF78AF9401B0228F6D9032002B0BDE88A
:101F1000F08100BFE168306A002900F09D8005294A
:101F200000F09280012940F0AF8040F00100B1E064
:101F30000020C4F242200021C0F88014FFF76CF9A1
:101F4000054600BF706A80077FF556AFFFF764F95A
:101F5000401B0228F6D9032002B0BDE8F08100BF83
:101F60000027C4F2422700203866FFF755F9022DFA
:101F700005460DD13068800140F1DE80FFF74CF955
:101F8000401B02284FF00300F4D902B0BDE8F081F5
:101F9000306880014FD5FFF73FF9401B02284FF012
:101FA0000300F5D9F1E700BF40F20800C2F20000DB
:101FB000006844F6D351C1F26201A0FB0101480A56
:101FC000019000BF00BF0198411E002801913FF41D
:101FD00013AF00BF0198411E002801913FF40CAFE0
:101FE00000BF0198411E002801913FF405AF00BFDA
:101FF0000198411E00280191E4D1FDE60021016015
:10200000FFF70AF9054600BF306880077FF5F1AE9B
:10201000FFF702F9401B02284FF00300F4D9B4E7A0
:102020007068216A00F480328A4209D1616A00F442
:102030007010884204D1002002B0BDE8F08100BFDA
:10204000012002B0BDE8F08140F004003062306A47
:1020500040F001001EE000BF20F001003062306A55
:1020600020F004003062FFF7D7F8054641F28837C8
:10207000306A800720D5FFF7CFF8401BB8424FF0F9
:102080000300F5D981E700BF20F001003062306A1B
:1020900020F004003062FFF7BFF8054641F28837B0
:1020A000306A800708D4FFF7B7F8401BB842F7D969
:1020B000032002B0BDE8F081B8F1000F3FF59FAEFC
:1020C000F06920F08050F06199E600BF40F4802074
:1020D0003060306840F480301CE000BF20F4803075
:1020E0003060306820F480203060FFF795F80546B6
:1020F000306880037FF55EAEFFF78EF8401B6428E2
:102100004FF00300F4D940E720F4803030603068AD
:1021100020F480203060FFF77FF8054630688003A8
:102120003FF548AEFFF778F8401B6428F6D9032046
:1021300002B0BDE8F08100BF206AB0F5803F05D154
:102140007168A26821F40031114371607168626A9C
:1021500021F4741111430843706001203866FFF7C1
:102160005BF80446306880013FF565AFFFF754F82F
:10217000001B02284FF00300F4D906E7411E00209F
:10218000B0EB116F1CBF012070474EF21002CEF26F
:10219000000251604EF62351CEF20001F0230B7085
:1021A0000721906011607047704700007047000081
:1021B000B0B582B001680A68CC684B6902F02F059F
:1021C000202D04F0200505D125B102B0BDE8B040B6
:1021D00001F054B85FEA027C1EBF03F0010E04F464
:1021E000907313EB0E0341D1036BD50618D5012B69
:1021F00016D114F0100313D0002201920A68019244
:102200004A680192019A496949064BD4818DC28D71
:10221000C38D002B18BF914240F0F48102B0B0BDD5
:1022200013062DD514F080032AD090F84120212ADE
:10223000F4D18268B2F5805F03D10269002A00F010
:102240006782026A531C036212784A60C28C013AA8
:102250001304C284E2D1C86820F08000C860C86856
:1022600040F04000C86002B0B0BD00BFD30718BF47
:1022700014F4807340F0D080530700F1D380D8E08D
:102280005206CBD514F04002C8D0CA6822F04002F2
:10229000CA60202180F8411002B0BDE8B04000F0D3
:1022A000DFBB00BFC16B0A68526893B2002BB5D088
:1022B000858DAB42B2D2C2858969202900F0A18008
:1022C000016851E8031F026821F4807142E803139A
:1022D000DBB1016851E8031F026821F4807142E814
:1022E000031393B1016851E8031F026821F4807160
:1022F00042E803134BB1016851E8031F026821F45F
:10230000807142E80313002BDAD1016851E8051F00
:10231000026821F0010142E80513C3B3016851E8E6
:10232000051F026821F0010142E805137BB3016833
:1023300051E8051F026821F0010142E8051333B39B
:10234000016851E8051F026821F0010142E8051308
:10235000002BDAD11BE000BF016851E8051F0268BD
:1023600021F0400142E80513DBB1016851E8051F87
:10237000026821F0400142E8051393B1016851E879
:10238000051F026821F0400142E805134BB10168C6
:1023900051E8051F026821F0400142E80513002BB7
:1023A000DAD1202180F8421000210163016851E850
:1023B000031F026821F0100142E80313DBB101683A
:1023C00051E8031F026821F0100142E8031393B1A2
:1023D000016851E8031F026821F0100142E803136D
:1023E0004BB1016851E8031F026821F0100142E877
:1023F0000313002BDAD1C16B04460846FEF764FCD8
:10240000204602214163818DC28D891A89B202B0B2
:10241000BDE8B040FFF7C8BE436C43F0010343641E
:10242000530706D5BEF1000F03D0436C43F00203FF
:102430004364930706D5BEF1000F03D0436C43F00D
:1024400004034364BCF1000F06D55EEA050303D024
:10245000436C43F008034364436C002B3FF4DEAE4F
:10246000920605D525B1044600F008FF21682046F4
:102470004969426C01F0400102F00802891800F03D
:10248000B98000BF016851E8031F026821F4907110
:1024900042E80313BBB3016851E8031F026821F44B
:1024A000907142E8031373B3016851E8031F026897
:1024B00021F4907142E803132BB3016851E8031F24
:1024C000026821F4907142E80313002BDAD11AE07C
:1024D000016851E8051F026821F0010142E8051377
:1024E000DBB1016851E8051F026821F0010142E8F3
:1024F000051393B1016851E8051F026821F001013D
:1025000042E805134BB1016851E8051F026821F04C
:10251000010142E80513002BDAD1016B012924D116
:10252000016851E8031F026821F0100142E803131B
:10253000DBB1016851E8031F026821F0100142E895
:10254000031393B1016851E8031F026821F01001E1
:1025500042E803134BB1016851E8031F026821F000
:10256000100142E80313002BDAD1202180F8421039
:102570000021016301684969490640F1C38001688F
:1025800051E8051F026821F0400142E80513DBB164
:10259000016851E8051F026821F0400142E8051377
:1025A00093B1016851E8051F026821F0400142E83B
:1025B00005134BB1016851E8051F026821F0400185
:1025C00042E80513002BDAD1C16B002900F09A8094
:1025D00043F27122C0F60002044608464A63FEF741
:1025E00097FB00283FF41AAEE06B416B02B0BDE8E8
:1025F000B04008470446FFF7D9FD0020606402B0F0
:10260000B0BD00BF891A00BF026852E8032F0368FB
:1026100022F4907243E80325BDB3026852E8032F09
:10262000036822F4907243E8032575B3026852E808
:10263000032F036822F4907243E803252DB3026848
:1026400052E8032F036822F4907243E80325002D1B
:10265000DAD11AE0026852E8052F036822F001027D
:1026600043E80525DDB1026852E8052F036822F032
:10267000010243E8052595B1026852E8052F036879
:1026800022F0010243E805254DB1026852E8052F0A
:10269000036822F0010243E80525002DDAD120224B
:1026A00080F8422000220263026852E8032F036888
:1026B00022F0100243E80325DDB1026852E8032F3F
:1026C000036822F0100243E8032595B1026852E83E
:1026D000032F036822F0100243E803254DB102687E
:1026E00052E8032F036822F0100243E80325002D6F
:1026F000DAD1022289B2426302B0BDE8B040FFF7EE
:1027000053BD00BF02B0BDE8B040FFF74FBD00BFF2
:10271000026A32F8023B6FF35F234B60026295E579
:10272000002804BF0120704710B5044690F841000E
:1027300028B9002084F84000204600F063F82420E7
:1027400084F841002068D4E90212C36823F40053DE
:10275000C360036923F440531A430261D4E904239C
:102760001143C268194341F20C639A431143C1609B
:102770004169A26921F44071114343F60002C4F299
:1027800001029042416103D0FFF7D0FA02E000BF9E
:10279000FFF7E0FAD4E90023192148439900B0FB80
:1027A000F1F048F21F5CC5F2EB1CA0FB0C314FF6B8
:1027B0009C734909C0F6FF7301FB0300322303EB4E
:1027C0000010A0FB0C03F02000EA531000EB0110F6
:1027D000C3F34311084490601069202120F4904015
:1027E0001061506920F02A005061D06840F4005018
:1027F000D0600020606484F8411084F84210606367
:1028000010BD0000F0B585B040F600050446C4F2E6
:1028100001050068A5F54441002788420497CDE9E9
:102820000277019702D005B0F0BD00BF41F2180059
:10283000C4F20200416801AE41F4003141604168D8
:1028400001F4003100910099016841F00401016038
:102850000068314600F004000090009804200190C8
:1028600002200290032004902846FEF7CDFB0820AA
:10287000CDE90107284631460397FEF7C5FB40F234
:1028800018158020C2F20005C4F202001021802237
:102890004FF4805385E883002846C5E90327C5E93E
:1028A0000577EB61FEF760FB002818BFFEF706FA1C
:1028B000262000210022A5636C62FFF79BF82620EA
:1028C000FFF786F805B0F0BD704700002DE9F04332
:1028D00081B0044690F84100202809D100294FF02A
:1028E000010018BF002A07D101B0BDE8F08300BF86
:1028F000022001B0BDE8F0830020606421201D4665
:102900000E4684F841001746FEF786FCA784E7844C
:10291000A1688146B1F5805F02D1206900285DD0B1
:1029200037460020E28C2168002A5DD06A1C24D042
:10293000002D4AD0804600BF0868000608D4FEF784
:102940006BFCA0EB0900A8427AD82168C868F3E7BD
:1029500017B117F8010B04E038F8020B00276FF3EA
:102960005F204860E08C0138E084E08C0028E3D1EF
:102970003AE000BF0A68120609D40A68120606D4B3
:102980000A6812065CBF0A685FEA0262F2D51FB1EC
:1029900017F8012B05E000BF30F8022B00276FF37A
:1029A0005F224A60E28C013AE284E28C002AE4D1A0
:1029B0001AE000BF30F8022B00276FF35F224A6055
:1029C000E28C013AE284E28C72B10A68120635D5D3
:1029D000002FEFD017F8012BF1E700BF002730469A
:1029E000E28C2168002AA1D1086840061ED42DB3CC
:1029F000681C14D1086840062AD40868400627D409
:102A00000868400624D4086840064FF00000F1D55D
:102A10000DE000BF2068C1680068400618D4FEF7CA
:102A2000FBFBA0EB0900A842F4D909E0002020211B
:102A300084F8411001B0BDE8F08300BFFEF7ECFB65
:102A40000320202184F8411001B0BDE8F08300BFCD
:102A50000020202184F8411001B0BDE8F08300007F
:102A600070470000FEE700002DE9F04782B0044601
:102A700000689A460B9D0A9E0368914643F4806263
:102A8000026002680F4642F48071016020464FF0F8
:102A9000011100223346009500F032F950B1206850
:102AA0000068C00544BF4FF400702064032002B0EA
:102AB000BDE8F08740F202082068C0F2010807F084
:102AC000FE0707612046414632462B4600F0FEF9DC
:102AD00020B1012002B0BDE8F08700BF00200190C6
:102AE00020682A4641690191806931460190019828
:102AF000204600F09FFAB0B92068BAF1010F09D062
:102B00004FEA19210161204631462A4600F092FA27
:102B100048B920685FFA89F10161204631462A46AA
:102B200000F088FA60B1206C0428D2D120680168D6
:102B300041F400710160012002B0BDE8F08700BFE0
:102B4000206800220168334641F48071016020460C
:102B50004FF00111009500F0D3F800289FD147F005
:102B6000010C27682046414632462B46C7F810C064
:102B700002B0BDE8F04700F0A9B900002DE9F0432C
:102B800083B0044600680F4601680A9D0B9E41F41D
:102B9000807199469046016020464FF00111002255
:102BA0002B46009600F0ACF850B120680068C005D4
:102BB00044BF4FF400702064032003B0BDE8F083ED
:102BC000206807F0FE0101610221C0F201012046E8
:102BD0002A46334600F07AF920B1012003B0BDE85F
:102BE000F08300BF002002902068324641690291C4
:102BF0008069294602900298204600F01BFA58B1DD
:102C0000206C0428E9D12068016841F4007101605A
:102C1000012003B0BDE8F0832068B9F1010F0AD0AC
:102C20004FEA1821016120462946324600F002FA97
:102C30000028E5D120685FFA88F10161002003B027
:102C4000BDE8F08370B50368044653F8140F4007DD
:102C500011D40E46481C29D086BB00BF1868400519
:102C600027D4FEF7D9FA236853F8140F400737D555
:102C700018684007F2D5002070BD00BF18684007F3
:102C8000F9D41868400514D418684007F3D41868BC
:102C900040050ED418684007EDD41868400508D4E4
:102CA000186840074FF0000048BF70BD1868400525
:102CB000E4D56FF480601860042012E0154603E04C
:102CC00053F8140F4007D6D418684005F1D4FEF726
:102CD000A3FA401B2368B042F2D958694007EFD4E9
:102CE000202000212022216384F83D2084F83E101A
:102CF000226C10432064012084F83C1070BD000059
:102D00002DE9F041054600681E46144601F47F0295
:102D100001338FB242D0DDF81880B2F5803F40F029
:102D2000878040693840C01BB0FA80F04009844277
:102D300040F0C8804EB924E040693840C01BB0FA6A
:102D400080F04009844240F0BD80FEF765FAA0EBB8
:102D500008012868B142EFD941693940C91BB1FA6D
:102D600081F149098C42E7D19BE000BF40693840BE
:102D7000C01BB0FA80F0400984424FF0000040F0E0
:102D8000A280FEF749FA286841693940C91BB1FAA7
:102D900081F149098C42E9D183E000BFB2F5803F5F
:102DA00024D100BF41693940C91BB1FA81F14909F9
:102DB0008C4240F0878041693940C91BB1FA81F1EA
:102DC00049098C4240F07E8041693940C91BB1FA03
:102DD00081F149098C4275D141693940C91BB1FA69
:102DE00081F149098C42DDD06CE000BF8169394036
:102DF000C91BB1FA81F149098C4263D1816939401B
:102E0000C91BB1FA81F149098C425BD18169394012
:102E1000C91BB1FA81F149098C4253D1816939400A
:102E2000C91BB1FA81F149098C42DFD04AE000BFE9
:102E300080693840C01BB0FA80F04009844241D11B
:102E400046B923E080693840C01BB0FA80F04009E1
:102E5000844237D1FEF7E0F9A0EB08012868B142BF
:102E6000F0D981693940C91BB1FA81F149098C4215
:102E7000E8D116E080693840C01BB0FA80F0400904
:102E800084424FF0000018BFBDE8F081FEF7C4F99E
:102E9000286881693940C91BB1FA81F149098C421E
:102EA000E8D100202021286385F83D1085F83E00F8
:102EB000296C41F02001296485F83C000120BDE81F
:102EC000F08100BF0020BDE8F0810000F0B581B0C6
:102ED000044600681D4643698FB203EA0701B94200
:102EE00002D1002001B0F0BD4169164601323CD04C
:102EF000490512D47EB300BFFEF78EF9411B20684E
:102F0000B14203D941693940B9422BD141693940B5
:102F1000B942E6D041694905EED5016841F4007136
:102F200001606FF48061416104200021202221634F
:102F300084F83D2084F83E10226C1043206484F80D
:102F40003C10012001B0F0BD41693940B942C8D000
:102F500041694905E1D4FEF75FF9206841693940CC
:102F6000B942F1D02020E0E741694905D5D4416953
:102F70003940B942B5D041694905CED4416939409B
:102F8000B942AED041694905C7D441693940B94217
:102F9000A7D041694905C0D441693940B942E3D15C
:102FA0009FE7000070B504460068154650F8143FCE
:102FB0005A063DD40E4629B926E000BF50F8141F2A
:102FC000490635D40168C90621D4FEF725F9411B0D
:102FD0002068B142F2D941694906EFD4002020218E
:102FE000206384F83D1084F83E00206C40F02000FF
:102FF00018E000BFFEF710F9206850F8141F4906CA
:10300000ECD50168490613D40168C906F2D56FF002
:103010001001016000202021206384F83D1084F815
:103020003E00206C2064002084F83C00012070BD2C
:10303000002070BD70B50368044653F8140F0006F5
:1030400011D40E46481C29D086BB00BF1868400525
:1030500027D4FEF7E1F8236853F8140F000637D59C
:1030600018680006F2D5002070BD00BF1868000681
:10307000F9D41868400514D418680006F3D4186809
:1030800040050ED418680006EDD41868400508D431
:10309000186800064FF0000048BF70BD1868400572
:1030A000E4D56FF480601860042012E0154603E058
:1030B00053F8140F0006D6D418684005F1D4FEF773
:1030C000ABF8401B2368B042F2D958690006EFD430
:1030D000202000212022216384F83D2084F83E1026
:1030E000226C10432064012084F83C1070BD000065
:1030F0002DE9F04184B040F25C14C2F200040025D6
:103100004FF0FF3801260DF10F072046D0216B222A
:1031100001238DF80F50CDE90076CDF80880FEF739
:10312000D9FA2046D0211C2201238DF80F50CDE979
:103130000076CDF80880FEF7CDFA2046D0211B227C
:1031400001238DF80F50CDE90076CDF80880FEF709
:10315000C1FA09208DF80F002046D0211922012341
:10316000CDE90076CDF80880FEF7B4FA2046D021EC
:10317000382201238DF80F60CDE90076CDF8088064
:10318000FEF7A8FA10208DF80F002046D021372234
:103190000123CDE90076CDF80880FEF79BFA04B054
:1031A000BDE8F0812DE9F04184B040F2B014C2F2E4
:1031B000000400254FF0FF3801260DF10F072046CF
:1031C000D2216B2201238DF80F50CDE90076CDF886
:1031D0000880FEF77FFA2046D2211C2201238DF8B9
:1031E0000F50CDE90076CDF80880FEF773FA20463F
:1031F000D2211B2201238DF80F50CDE90076CDF8A6
:103200000880FEF767FA09208DF80F002046D221CA
:1032100019220123CDE90076CDF80880FEF75AFA8D
:103220002046D221382201238DF80F60CDE90076A7
:10323000CDF80880FEF74EFA10208DF80F002046DA
:10324000D22137220123CDE90076CDF80880FEF7A0
:1032500041FA04B0BDE8F081FEE70000FEE700009F
:103260007047000070470000FEF74ABB704700003F
:10327000406A0021C185C184FEF798BF81B090F8F3
:103280004210222921D183680246B3F5805F09D11B
:1032900052F8281F52F8183C002B63D003685B6873
:1032A0000AE000BF52F8281F13B90369002BF5D0BC
:1032B00003685B6803F07F030B70116801311160D4
:1032C000C18D01390A04C18502D001B0704700BF29
:1032D0000168CA6822F02002CA60CA6822F48072BB
:1032E000CA604A6922F001024A61202180F8421036
:1032F00000214163026B012A3CD10163016851E85E
:10330000031F026821F0100142E80313DBB10168DA
:1033100051E8031F026821F0100142E8031393B142
:10332000016851E8031F026821F0100142E803130D
:103330004BB1016851E8031F026821F0100142E817
:103340000313002BDAD101680A68D20606D50022E1
:1033500000920A680092496800910099818D01B03D
:10336000FEF722BF026852686FF35F2221F8022B3A
:103370008162A5E701B0FFF7A7BA000040F28C0018
:10338000C2F20000FEF714BFFEE70000D0B0FEF767
:10339000C5FA00240120CDE93044CDE92E442F9018
:1033A0001020022530902BA8CDE92C444F94CDE974
:1033B0004D442B95CDE932543494FEF7DFFC28B10F
:1033C000EFF3108072B600BFFEE700BF0F20CDE91B
:1033D00044054FF48060CDE9470444A80021469499
:1033E000FEF7C6FB20B1EFF3108072B6FEE700BF18
:1033F00002200DF598794C90002648464E96FEF72F
:1034000035FB28B1EFF3108072B600BFFEE700BFB6
:1034100041F21800CDE92D66CDE92B66C4F2020019
:10342000016844F2004741F0100101600168C4F2F4
:10343000000701F01001449144990168002541F012
:103440002001016001682BAC01F0200144914499F6
:103450000168C1F2110541F004010160016801F049
:10346000040144914499016841F008010160006839
:10347000214600F00800449044984FF400502B90EF
:1034800007F54C40CDE92C56FDF7BEFD4FF4E0604A
:103490002BA961C107F544402146FDF7B5FD382051
:1034A0002BA961C107F548402146FDF7ADFD092074
:1034B00000210022FEF79EFA0920FEF789FA0A2071
:1034C00000210022FEF796FA0A20FEF781FA172063
:1034D00000210022FEF78EFA1720FEF779FA282045
:1034E00000210022FEF786FA2820FEF771FA40F24A
:1034F0007005C2F20005284640F81C7F4FF4E13108
:103500000C22C0E90116C0E90366C0E90526C661C0
:10351000FFF706F920B1EFF3108072B6FEE700BFA7
:1035200048F2A06840F25C10C0F2010807F5805133
:10353000C2F2000000244FF48046C0E90018C0E940
:103540000244C0E90464C0E906440462FDF76AFE6F
:1035500020B1EFF3108072B6FEE700BF40F2B0106A
:1035600007F5A051C2F20000C0E90018C0E902440A
:10357000C0E90464C0E906440462FDF753FE28B1C3
:10358000EFF3108072B600BFFEE700BF05F11C0626
:10359000A7A1304611224FF0FF334FF0FF34FFF761
:1035A00095F9FFF7A5FDFFF7FDFDA6A130460F2217
:1035B0004FF0FF33FFF78AF900208DF8300101202A
:1035C000CDE9009040F25C10C2F20000D0217522DB
:1035D00001230294FDF7D8FE9DF8302144AC9DA153
:1035E0002046FCF717FE2046FCF718FF82B2304653
:1035F00021464FF0FF331896FFF768F905F10E00EA
:10360000179000BF40F25C100E26C2F20000D021DD
:103610003B2201234FF0FF34009501960294FDF701
:10362000B3FE1798D221CDE9000640F2B010C2F2E5
:1036300000003B2201230294FDF7A6FE40F2700138
:10364000C2F200012888B5F802B0B5F804A0B5F8B8
:103650000890B5F80A80AF89EE890D8A498AC0BA08
:10366000269140F27001C2F20001C98A279140F20E
:103670007001C2F20001098B289140F27001C2F280
:103680000001498B2A9100F0FDFD4FF0625100F0DE
:1036900011FE29909BFABBF000F0F4FD4FF062514F
:1036A00000F008FE83469AFABAF000F0EBFD4FF006
:1036B000625100F0FFFD824699FAB9F000F0E2FD98
:1036C0000024C4F20334214600F01AFD814698FA22
:1036D000B8F000F0D7FD214600F012FD8046F8BAA0
:1036E00000F0D0FD214600F00BFD0746F0BA00F0D7
:1036F000C9FD4FF0625100F0DDFD0646E8BA00F06A
:10370000C1FD4FF0625100F0D5FD05462698C0BAC4
:1037100000F0B8FD4FF0625100F0CCFD26902798E4
:10372000C0BA00F0AFFD214600F0EAFC27902898CF
:10373000C0BA00F0A7FD214600F0E2FC24902A98D0
:10374000C0BA00F09FFD214600F0DAFC1E902998D7
:1037500000F0AAFCCDE92910584600F0A5FC2890FD
:103760005046259100F0A0FCCDE92210484600F01B
:103770009BFCCDE91F10404600F096FC1D9038469A
:10378000219100F091FCCDE91B10304600F08CFC3B
:10379000CDE91910284600F087FC80462698894616
:1037A00000F082FC824627988B4600F07DFC05469F
:1037B00024980E4600F078FC04461E980F4600F050
:1037C00073FCCDE913701C98159108901B980BA9F8
:1037D00009901A98CDE911640A9019982BAC81E8E8
:1037E000010F2898DDE9293200902598219F01904A
:1037F000239810950290229840F27005039020982B
:1038000019A104901F98C2F2000505901D98079712
:1038100006902046FCF7FEFC2046FCF7FFFD82B236
:10382000189821464FF0FF33FFF750F8EAE600BF43
:103830004D50553630353020494E49542E2E2E0DE0
:103840000A0000004D505536303530205245414475
:10385000590D0A0057484F5F414D5F49203D2030C8
:1038600078253032580D0A00252E326620252E325A
:103870006620252E326620252E326620252E3266C1
:1038800020252E326620252E326620252E326620F7
:10389000252E326620252E326620252E32662025E2
:1038A0002E32660D0A0000005FEA400C08BF91F05E
:1038B000000F4FEA8C234FEAC12243EA51514FEAED
:1038C0001C5018BF00F5F0404FEA300018BF41F01F
:1038D00000415FEA6C5C00F02980BCF1FF3F08BF4B
:1038E00040F080407047130C06BF12044FF0100CDC
:1038F0004FF0000C130E04BF12020CF1080C130F52
:1039000004BF12010CF1040C930F04BF92000CF1E0
:10391000020CD30F04BF52000CF1010C11464FF002
:103920000002A0F11F00A0EB0C00704711F0004F47
:1039300008BF704731F000413FF4D5AF0B0C06BF14
:1039400009044FF0100C4FF0000C0B0E04BF0902DD
:103950000CF1080C0B0F04BF09010CF1040C8B0FC8
:1039600004BF89000CF1020CCB0F04BF49000CF11D
:10397000010CCCF1200322FA03F341EA030102FA1D
:103980000CF2A0EB0C0000F10100704723F07F4720
:1039900020F07F4C80EA030000F00040ACEB07030E
:1039A00003F57C5303F1FF032DE9804909B44FEA85
:1039B000144324EA03484FEA154B25EA0B4E0FF255
:1039C000042606EB13273E7803FB0667C7F50007BE
:1039D00007FB06F64FEAD64606F102064FEA5437D1
:1039E00007FB066CCCF1005C4FEA1C472CEA074C45
:1039F0000CFB06F507FB06F404EB15464FEA96169A
:103A000049085FEA320234BF00204FF000404FEA1D
:103A1000D13706FB07FC4FEA1C4C0CFB0BF7D21B03
:103A200003FB0CF761EB07010CFB0EF7B0EB074053
:103A300072EB17420CFB08F734BFA2EB0742B2EB64
:103A4000074261EB17414FEA0C444FEA910706FB2E
:103A500007FC4FEA1C4C0CFB0BF7B0EBC74072EBBA
:103A6000573203FB0CF734BFA2EBC742B2EBC7429D
:103A700061EB57310CFB0EF7B0EBC70072EB5772DE
:103A80000CFB08F734BFA2EBC702B2EBC70261EB35
:103A900057714FEA816141EA92114FEA826242EA2C
:103AA00090124FEA806004EBCC04039F4FEAD137B9
:103AB00006FB07FC4FEA1C4C0CFB0BF7D21B03FB6D
:103AC0000CF761EB07010CFB0EF7B0EB074072EB54
:103AD00017420CFB08F734BFA2EB0742B2EB0742D8
:103AE00061EB17414FEA8C5504EB9C244FEA910798
:103AF00006FB07FC4FEA1C4C0CFB0BF7B0EBC74076
:103B000072EB573203FB0CF734BFA2EBC742B2EBA8
:103B1000C74261EB57310CFB0EF7B0EBC70072EBFD
:103B200057720CFB08F734BFA2EBC702B2EBC70217
:103B300061EB57714FEA816141EA92114FEA82626B
:103B400042EA90124FEA806015EB4C2544F10004E4
:103B50004FEAD13706FB07FC4FEA1C4C0CFB0BF776
:103B6000D21B03FB0CF761EB07010CFB0EF7B0EB6C
:103B7000074072EB17420CFB08F734BFA2EB074279
:103B8000B2EB074261EB17414FEA813141EA9241C2
:103B90004FEA823242EA90424FEA80304FEA0C7696
:103BA00015EB1C1544F1000448EA03434EEA0B48A8
:103BB0004FF0000EB2EB080C71EB030724BF624616
:103BC00039464EEB0E0E4FF0000B001852414941A2
:103BD0004BEB0B0BB2EB080C71EB03077BF1000B0B
:103BE00024BF624639464EEB0E0E4FF0000B001814
:103BF000524149414BEB0B0BB2EB080C71EB030745
:103C00007BF1000B24BF624639464EEB0E0E51EAA3
:103C1000020718BF46F0010616EB0E7655F10002BA
:103C200054F1000103D5BDE88901BDE80088BDE875
:103C30008901BDE80048B619524141EB0101A3F1E9
:103C40000103704780807F7E7D7C7B7A79787776F0
:103C500076757473727171706F6E6E6D6C6C6B6A69
:103C60006A69686867666665646463636261616007
:103C7000605F5F5E5E5D5D5C5C5B5B5A5A59595884
:103C800058575756565555555454535352525251EE
:103C9000515050504F4F4F4E4E4D4D4D4C4C4C4B44
:103CA0004B4B4A4A4A49494948484847474747468B
:103CB00046464545454444444443434343424242C7
:103CC000424141419C46002B30D477002BD04FEA33
:103CD00037071CB503B44FF010004FF01001BAF1D4
:103CE000000F06D0BCF1000FDCBF40F0080040F030
:103CF00008014FF000000FBCBDE810400BF1010BB4
:103D0000BBF1010F08BF5FEA170722BF12F10102E2
:103D100011F101014FF0004143F1000300F00040B8
:103D200043EA00007047F9D35708D0E746EA064651
:103D30004FEA164613F1400F1FDD13F1200FDFBFCE
:103D400016430A46002120335B42BED0C3F1200750
:103D500046EA06464FEA164602FA07F746EA07061B
:103D600022FA03F2C3F1200701FA07F742EA070239
:103D700021FA03F14FF00003A7E746EA020646EAFC
:103D800006464FEA164646EA0106BCBF46EA064624
:103D9000360C4FF000034FF000024FF0000194E7A3
:103DA0002DE9804C70B49A46934691E8380007C8D4
:103DB00031EA400C48BF34EA430C03D5FFF7E6FD77
:103DC000FFF780FFF0BCBDE8008C2DE9804C70B49B
:103DD0009A46934691E8380007C810F0804F08BF14
:103DE00013F0804F03D100F005F8FFF76BFFF0BC34
:103DF000BDE8008C20F07F4723F07F4C80EA030071
:103E000000F0004007EB0C03A3F57C53A3F1FE0385
:103E100092F0000F00F0B38095F0000F00F0778073
:103E20002DE901494FEA114021EA00484FEA1446C2
:103E300024EA064700FB06FC08FB06F607FB08F829
:103E400018EB06484CEB164C00FB07F718EB07483D
:103E50004CEB17404FEA124B22EA0B4E4FEA154645
:103E600025EA06470BFB06FC0EFB06F607FB0EFEDB
:103E70001EEB064E4CEB164C0BFB07F71EEB074EEA
:103E80004CEB174B18EB0B0840F1000018EB0E0B36
:103E900058EB000840F100008F1A4FF000014FF07E
:103EA00000063CBFC943661B14BFB5EB040C0021E0
:103EB0003CBFC943F61B4FEA174427EA04454FEAC3
:103EC0001C472CEA074C04FB076205FB07F70CFBB9
:103ED00005F616EB074642EB174204FB0CFC16EB0B
:103EE0000C4642EB1C421BEB060658EB020241411A
:103EF0004EEA8E0E46EA9E0601D5BDE80189B61946
:103F0000524141EB0101A3F10103BDE801894FEAF0
:103F1000144524EA05464FEA114721EA074C05FB00
:103F200007F406FB07F70CFB06F111EB074144EB26
:103F3000174405FB0CFC11EB0C4144EB1C444FEA0D
:103F4000124722EA074C05FB07F206FB07F70CFBBA
:103F500006F616EB074642EB174205FB0CFC16EB88
:103F60000C4642EB1C456A1854F1000148BF7047EB
:103F7000B619524141EB0101A3F10103704795F0DD
:103F8000000F37D04FEA114221EA02464FEA1447A8
:103F900024EA074C02FB07F106FB07F70CFB06F4CB
:103FA00014EB074441EB174102FB0CFC14EB0C44EF
:103FB00041EB1C414FEA154725EA074C02FB07F588
:103FC00006FB07F70CFB06F616EB074645EB174515
:103FD00002FB0CFC16EB0C4645EB1C42121951F18E
:103FE000000148BF7047B619524141EB0101A3F1EE
:103FF000010370474FEA144524EA05464FEA11478A
:1040000021EA074C05FB07F106FB07F70CFB06F25C
:1040100012EB074241EB174105FB0CFC12EB0C4283
:1040200051EB1C414FF0000648BF7047921841EB1E
:104030000101A3F101037047490050EAC12018BFF4
:1040400004204A0D18BF40F0010040F2FF72B2EBAD
:10405000515F08BF40F00200012808BF05207047EB
:1040600030380A2801D20120704700207047000034
:1040700010B500290AD00878002807D005487844F0
:10408000FCF7A2FD002801D0002010BD02487844B2
:1040900010BD0000EE040000E60400000808A0F5D2
:1040A00000114FEA3101704743004FEAD30C4FEA49
:1040B0003C0C43401FBF40070CF1605113F0FE4F12
:1040C00070471CF0006F03D10CF0004100207047D6
:1040D0000CF0004343EA507040EACC0010B500F009
:1040E0006AF900BF000000924FEA0001FFF7D6BF57
:1040F0004FF00041A1F500214FF000007047000093
:104100004FF47F0C1CEAD0121EBF1CEAD11392EAB6
:104110000C0F93EA0C0F00F0858090EA010F48BF66
:1041200042F4807240F4000C41F400002CF07F4116
:1041300020F07F4000B5A2EB030281420FF2081C81
:10414000ACEB504E9EF800E0C0F100004FEA4E0E7E
:1041500000FB0EFC38BF49004FEA2C1C0CFB0EF391
:104160004FEACE1E0EEB635E4FEA112C0EFB0CFCE9
:104170004FEAC1214FEA1C5300FB031102F5FA027A
:104180004FEA112C0EFB0CFC4FEA01314FEADC4CDC
:1041900000FB0C1142EB2242C14228BF09184CEB34
:1041A00003335DF804EB10EB410143EBC250B2F571
:1041B0007C0F38BF704729D512F0F00F1CBF00F1FB
:1041C000C04000F00040704700818283848586876C
:1041D00088898B8C8D8E8F919293959697999A9CC6
:1041E0009D9FA0A2A3A5A7A8AAACAEB0B2B3B5B735
:1041F000B9BCBEC0C2C5C7C9CCCED1D4D7D9DCDF0B
:10420000E2E6E9ECF0F3F7FAFE0000004FEA400CBA
:104210000CF1807CBCF17E4F28BF7047B0F1C040EC
:1042200000F00FB90CEAD11390EA010F48BF42F435
:104230008072624538BF634507D213F47F0F16D0F2
:1042400080EA010000F00040704710B500F0B3F8BC
:10425000097EFC3E00F005B880EA010000F0004055
:10426000704780EA010000F0004000F0EAB812F464
:104270007F0F04BF0248704780EA010000F0E1B8F8
:104280000000C07F10F0004148BF4042B0FA80F308
:1042900010FA03F2C3F19D030BD051EAC35101EBB5
:1042A0001220530638BF704700F1010008BF20F00C
:1042B000010070474FF47F0C1CEAD0121EBF1CEAAD
:1042C000D11392EA0C0F93EA0C0F00F0478090EAAA
:1042D000010F48BF42F480724FF0004C4CEA0020BE
:1042E0004CEA012102EB0302A0FB0113A2F500023C
:1042F000002918BF43F001035B0028BF4FEA3303D6
:1043000042EB22425FEA132C4CEBC2502EBFBCEBB7
:10431000436FB2F57C0F70474FEA036CBCF1004F5E
:1043200008BF20F00100B2F57C0F38BF70470BD5F5
:1043300082F0FF0212F5803FC8BF704700F1C04015
:10434000D8BF00F00040704700F5000C5FEA4C0C4D
:1043500048BF7047B0F1C04000F073B80CEAD11309
:1043600090EA010F48BF42F48072624538BF63454E
:1043700004D280EA010000F00040704710B500F060
:104380001AF800BF8900013E00F007B800F009B834
:104390005FEA410C5FEA1C6C08D080EA010000F083
:1043A00050B85FEA400C5FEA1C6CF6D14FF0004059
:1043B000A0F5800070470EF1020E2EF0030E5EF89D
:1043C000044B244204D44FEA4102B2F17F4F11D88A
:1043D0004FEA4003B3F17F4F0CD80ED14FEAD07CA7
:1043E0000CEB4C0C0CF1020CB2F17F4F08BF4CEB04
:1043F000D17C04E04FF0080C01E04FEAD17C0CEBDB
:104400004C0324FA03F404F00704B4F1040C06D2BC
:104410000EEB840CBDE810404CF0010C6047DFE867
:104420000CF0070802024FF00040A0F5800010BD1C
:104430000846420018BFD2F1807288BF00F00040E9
:1044400010BDFF2141EAD050C0057047FCF739B9D3
:1044500030313233343536373839414243444546BA
:1044600040305800303132333435363738396162B4
:1044700063646566403078000400000800000000B6
:1044800000000002000100001000000002400000D7
:10449000000000A00000000005400000000000C86F
:1044A000000000000C4000000000409C00000000E4
:1044B000194000000020BCBE000000003440000095
:1044C000BFC91B8E00000004B5400000504BCFD088
:1044D0006607E2CF010000006C4100003E8251AA55
:1044E000DFEEA73401000000D9420000DCB5A0E2F5
:1044F0003A301F97FFFFFFFFB4450000FD25A0C81D
:10450000E9A3C14FFFFFFFFFFF3F00000000008055
:1045100000000000FF3F00000000008000000000DD
:104520000000000000000000010203040607080963
:104530000000000001020304010202030405060753
:1045400008090A0B0C0D0E0F10100000884500081A
:1045500000000020100000005001000898450008ED
:1045600010000020F8070000700100081C00000087
:1045700043000000F8FFFFFF0C0000000E000000E9
:104580000F0000002E0000000100000010000000DD
:0845900000127A000000000097
:04000005080000ED02
:00000001FF
